:060000000C94A0000C941A
:1000060000000C9400000C9400000C9400000C946A
:1000160000000C9400000C9400000C9400000C945A
:1000260000000C9400000C9400000C9400000C944A
:1000360000000C9400000C9400000C9400000C943A
:1000460000000C9416010C9400000C9400000C9413
:1000560000000C9400000C9400000C9400000C941A
:1000660000000C9400000C9400000C9400000C940A
:1000760000000C941F010C9400000C9400000C94DA
:1000860000000C9400001027E80364000A00010039
:100096000010000110000100000000000000000038
:1000A6000000000041540D0A0041542B5253540DD8
:1000B6000A0041542B43574D4F44453F0D0A00411A
:1000C600542B43574A41503D004444444400313187
:1000D6003131313131310041542B43574A41503F80
:1000E6000D0A0041542B43494653520D0A00415410
:1000F6002B43495053544152543D00544350003110
:1001060039322E3136382E34332E313500383030F0
:10011600310D0A0041542B43495053454E443D3658
:100126000D0A004D796F756E670D0A000100020019
:100136009E000A000400A0000000F894EE27ECBB25
:10014600F1E0F5BFE5BFE0936C008DE0A2E0BB27D0
:10015600ED938A95E9F780E090E1A0E0B1E0ED93B8
:100166000197E9F7E2E3F1E085919591009761F057
:10017600A591B59105901590BF01F00105900D92DE
:100186000197E1F7FB01F0CF8BBFEFEFEDBFE0E1A9
:10019600EEBFC0E0D5E00C94A303E0E0EBB9E8E9DC
:1001A600EAB9E6E0E0939500E0E0E0939000E7E648
:1001B600E9B90895E0E0E0939B00E8E9E0939A004E
:1001C600E6E0E0939D00E0E0E0939800E7E6E09348
:1001D600990008951A931A2F103031F45D9B02C0CE
:1001E600E1E009C0E0E007C0E0919B00E07211F099
:1001F600E1E001C0E0E0199108951A930A931A2FDD
:100206000A81A12FE7DFE030E1F3A12FE3DFE13040
:1002160031F4103011F40CB902C000939C0019811E
:10022600088123960895F8D21CB11A93A1E0E5DF60
:100236001A93A0E0E2DF11C0EFD210919C00109358
:10024600010544241A93A0E0D8DFA0910105AD3042
:1002560021F4F1D2AAEFB0E019D31991E991EFBFD9
:10026600F991E991B991A9919991899179916991B8
:10027600F990199009901895E3D2E9D2E1E07E2E23
:10028600E2E0EA15C9F70895DBD2E6D2E1E06E2E88
:10029600E4E0EA15C9F70895EA2DF0E0309711F485
:1002A600E0D225C0E230A0E0FA0711F4D0D21FC098
:1002B600E430A0E0FA07B9F0EF30A0E0FA0711F455
:1002C600DBDF15C0E930A0E0FA0719F4B4D2CED2CC
:1002D6000EC0E130A0E0FA0711F4B9D208C0E83048
:1002E600A0E0FA0721F4C598C69A1C981B980895B1
:1002F600EA2DF0E0309711F4B4D225C0E230A0E048
:10030600FA0711F4A4D21FC0E430A0E0FA07B9F04E
:10031600EF30A0E0FA0711F4B7DF15C0E930A0E02E
:10032600FA0719F488D2A2D20EC0E130A0E0FA078B
:1003360011F48DD208C0E830A0E0FA0721F4C59880
:10034600C69A1C981B980895EA2DF0E0309711F490
:1003560088D22DC0E230A0E0FA0711F478D227C087
:10036600E430A0E0FA07F9F0EF30A0E0FA0751F424
:10037600E1E0E41511F480DF4424442011F471D245
:1003860080D215C0E930A0E0FA0719F454D26ED233
:100396000EC0E130A0E0FA0711F459D208C0E830E7
:1003A600A0E0FA0721F4C598C69A1C981B980895F0
:1003B600EA2DF0E0309711F454D22EC0E230A0E0DE
:1003C600FA0711F444D228C0E430A0E0FA0701F19C
:1003D600EF30A0E0FA0759F4E1E0E41519F454DF30
:1003E600442404C0442011F43CD24BD215C0E93059
:1003F600A0E0FA0719F41FD239D20EC0E130A0E00E
:10040600FA0711F424D208C0E830A0E0FA0721F474
:10041600C598C69A1C981B980895EA2DF0E0309767
:1004260011F41FD236C0E230A0E0FA0711F40FD261
:1004360030C0E430A0E0FA0741F1EF30A0E0FA075F
:1004460099F4E2E0E41519F417DF44240CC0E1E066
:10045600E41521F0442011F0E0E001C0E1E0E130D4
:1004660011F4FFD10ED215C0E930A0E0FA0719F455
:10047600E2D1FCD10EC0E130A0E0FA0711F4E7D1D9
:1004860008C0E830A0E0FA0721F4C598C69A1C987F
:100496001B980895EA2DF0E0309711F4E2D136C0AA
:1004A600E230A0E0FA0711F4D2D130C0E430A0E087
:1004B600FA0741F1EF30A0E0FA0799F4E2E0E4151B
:1004C60019F4E2DE44240CC0E1E0E41521F04420F6
:1004D60011F0E0E001C0E1E0E13011F4C2D1D1D188
:1004E60015C0E930A0E0FA0719F4A5D1BFD10EC0B6
:1004F600E130A0E0FA0711F4AAD108C0E830A0E084
:10050600FA0721F4C598C69A1C981B980895EA2DF7
:10051600F0E0309711F4A5D138C0E230A0E0FA0738
:1005260011F495D132C0E430A0E0FA0751F1EF3072
:10053600A0E0FA07A9F4E3E0E41511F49DDE4424F3
:10054600E1E0E41539F0442029F0E2E0E41511F089
:10055600E0E001C0E1E0E13011F483D192D115C0B1
:10056600E930A0E0FA0719F466D180D10EC0E13077
:10057600A0E0FA0711F46BD108C0E830A0E0FA0752
:1005860021F4C598C69A1C981B980895EA2DF0E0A8
:10059600309711F466D138C0E230A0E0FA0711F4C2
:1005A60056D132C0E430A0E0FA0751F1EF30A0E0B6
:1005B600FA07A9F4E3E0E41511F466DE4424E1E069
:1005C600E41539F0442029F0E2E0E41511F0E0E00A
:1005D60001C0E1E0E13011F444D153D115C0E93056
:1005E600A0E0FA0719F427D141D10EC0E130A0E00E
:1005F600FA0711F42CD108C0E830A0E0FA0721F47C
:10060600C598C69A1C981B980895EA2DF0E0309775
:1006160009F5DD20B1F4019902C0029B02C00BD19D
:10062600FACF1FD1A4E1B0E031D1C5981B981C9830
:100636001B98A8EEB3E02AD11FDEE1E0DE2EE1E34F
:1006460005C0E1E0ED1529F40CD1E2E3EA93A1E05F
:10065600D4DD30C0E230A0E0FA0731F4F8D0E3E3AD
:10066600EA93A1E0CADD26C0E430A0E0FA0731F43F
:10067600F3D0E4E3EA93A1E0C0DD1CC0E930A0E0DA
:10068600FA0751F4D8D0F2D044247724DD24E5E3E8
:10069600EA93A1E0B2DD0EC0E130A0E0FA0711F462
:1006A600D6D005C0E830A0E0FA0721F4D5D0A4E101
:1006B600B0E0ECD00895EA2DF0E0309711F4D1D0F7
:1006C6003EC0E230A0E0FA0711F4C1D038C0E430F1
:1006D600A0E0FA0711F4C0D032C0EF30A0E0FA076C
:1006E60051F4442039F4BDD0AEE1B0E0CFD0CCDD3A
:1006F600D394439424C0E930A0E0FA0791F4DD20B6
:1007060039F4EFE0EA1519F096D09AD0FACF08C07E
:10071600E1E0ED1529F48FD0A9D044246624DD2428
:100726000EC0E130A0E0FA0711F491D005C0E83020
:10073600A0E0FA0721F490D0A4E1B0E0A7D0089594
:10074600E0E0E0936100EFEFE7BBE2B9789425DDE6
:1007560031DD442475D0E0910105F0E0309729F4AD
:10076600C598C6981C981B9855C0E130A0E0FA07BA
:1007760011F492DD4FC0E230A0E0FA0711F4B8DDC3
:1007860049C0E330A0E0FA0711F4DEDD43C0E430EF
:10079600A0E0FA0711F40CDE3DC0E530A0E0FA0750
:1007A60011F43BDE37C0E630A0E0FA0711F472DE42
:1007B60031C0E730A0E0FA0711F4A9DE2BC0E8301B
:1007C600A0E0FA0711F4E2DE25C0E930A0E0FA075E
:1007D60011F43DD01FC0EA30A0E0FA0711F43CD076
:1007E60019C0EB30A0E0FA0711F43BD013C0EC308F
:1007F600A0E0FA0711F41FD00DC0ED30A0E0FA0713
:1008060049F4E1E0E71511F400DF04C0E1E0E61584
:1008160009F451DF9FCFFFCF0A921A92FA926A9398
:100826007A938A939A93AA93BA93EA93FA93EFB731
:10083600EA931A930895C59AC6981C9A1B98089528
:10084600E0B1EF70E095AE2EEFE0AE2208951C9871
:100856001B9AC598C6980895C598C69A1C981B9861
:100866000895C598C69A1C981B9A0895A4E1B0E00D
:100876000DD0C5981B981C981B98E0E0E0930105E5
:100886000895AAEFB0E002D043940895109639F087
:10089600A89580EA9FE00197F1F71197C9F70895A7
:00000001FF
