:020000000C945E
:1000020099000C9400000C9400000C9400000C94D5
:1000120000000C9400000C9400000C9400000C945E
:1000220000000C9400000C9400000C9400000C944E
:1000320000000C9400000C9400000C9400000C943E
:1000420000000C9400000C940F010C9400000C941E
:1000520000000C9400000C9400000C9400000C941E
:1000620000000C9400000C9400000C9400000C940E
:1000720000000C9400000C9414010C9400000C94E9
:1000820000000C9400000C9400001027E8036400A8
:100092000A00010000100001100001000000000031
:1000A20041540D0A0041542B5253540D0A0041543D
:1000B2002B43574D4F44453F0D0A0041542B4357A4
:1000C2004A41503D00697074696D65003171327743
:1000D200336534720041542B43574A41503F0D0A55
:1000E2000041542B43494653520D0A0041542B43BD
:1000F200495053544152543D00544350003232301F
:100102002E36362E3134342E393700383030310D18
:100112000A0041542B43495053454E443D31380D5A
:100122000A00010002009E0002000400A00000007C
:10013200F894EE27ECBBF1E0F5BFE5BFE0936C006D
:100142008DE0A2E0BB27ED938A95E9F780E090E18C
:10015200A0E0B1E0ED930197E9F7E4E2F1E08591E7
:100162009591009761F0A591B59105901590BF0109
:10017200F00105900D920197E1F7FB01F0CF8BBFE3
:10018200EFEFEDBFE0E1EEBFC0E0D5E00C9463011C
:10019200E0E0EBB9E8E9EAB9E6E0E0939500E0E0F7
:1001A200E0939000E8E0E9B90895E0E0E0939B0075
:1001B200E8E9E0939A00E6E0E0939D00E0E0E09356
:1001C2009800E8E0E093990008951A931A2F1030EE
:1001D20031F45D9B02C0E1E009C0E0E007C0E091BC
:1001E2009B00E07211F0E1E001C0E0E01991089596
:1001F2001A930A931A2F0A81A12FE7DFE030E1F365
:10020200A12FE3DFE13031F4103011F40CB902C058
:1002120000939C00198108812396089538D21CB15D
:100222001A93A1E005C033D210919C001A93A0E06A
:10023200DFDF1991E991EFBFF991E991B991A991A4
:100242009991899179916991F990199009901895EC
:10025200E2EAF0E02BD2E7EAF0E028D2E0EBF0E0CD
:1002620025D2EDEBF0E02AD2E7ECF0E027D22DD256
:10027200EEECF0E023D2E4EAF0E02BD2A8E8B3E11E
:10028200A5D2E7EDF0E025D2A8EBBBE09FD2E3EEEA
:10029200F0E00CD2EEEEF0E011D2EBEFF0E00ED295
:1002A20014D2EFEFF0E00AD2ACE27AD0EDE0F1E066
:1002B20010D2A8EC04C0E4E1F1E00BD2A1E0B0E07E
:1002C20085D20895E0E0EABBEFEFEBBB789460DF04
:1002D2006CDFBEDF69B26094A62DB0E0E0E8F0E02A
:1002E200FED1E0930705A62DB0E0E0E4F0E0F7D1FF
:1002F200E0930605A62DB0E0E0E2F0E0F0D1E09355
:100302000505A62DB0E0E0E1F0E0E9D1E0930405B7
:10031200A62DB0E0E8E0F0E0E2D1E0930305A62DDF
:10032200B0E0E4E0F0E0DBD1E0930205A62DB0E01E
:10033200E2E0F0E0D4D1E0930105E62DF0E0A1E0A7
:10034200B0E024D2E0930005B6DFE1E4CDD1E09144
:100352000705E05DC9D1E0910605E05DC5D1E091F8
:100362000505E05DC1D1E0910405E05DBDD1E091FC
:100372000305E05DB9D1E0910205E05DB5D1E09100
:100382000105E05DB1D1E0910005E05DADD1EAE0AB
:10039200EA93A0E02DDFA4E6B0E018D29BCFFFCF16
:1003A200AA935D9BFECFE881ECB921960895C2D154
:1003B2008D013C81A32FF4DFD801ED91FD9131969F
:1003C200FE93EE93BED125960895BA93AA932697EB
:1003D200AFD110E0AC85BD85E0E0F0E0ED93FC9399
:1003E200EA89FB893196EA8BFB8B3197E4912E2FB8
:1003F200E03009F409C1E12FE03031F4253211F483
:1004020011E001C078D1FFC0E130A1F4253211F42E
:1004120072D1F8C012E040E000E02D3211F401E0A8
:10042200F2C02B3211F44BE2EEC0203211F440E262
:10043200EAC002C0E23039F450E013E0203311F494
:100442000068E1C003C0E33009F0DDC0203310F0E2
:100452002A3308F007C0AAE05A9F502DE22FE0533A
:100462005E0FD1C0E22FE33639F44CD1E889F98925
:10047200A481AA934DD1C6C0E33729F443D14ED10A
:10048200EDD01E2F07C0E03749F43CD147D1F2D05E
:100492001E2F086002600F7730E038C0E43611F09A
:1004A200E93611F4046002C0E53731F4ECE8F0E01B
:1004B200EE83FF8315E00CC0E83511F4086003C039
:1004C200E83709F09FC0E6E9F0E0EE83FF8314E02D
:1004D20002FF15C017D1A889B9891496ED91FD9133
:1004E200EA87FB87AB85AA2322F434D1EA87FB870C
:1004F2004DE2403011F01F5F01C00B7F07C002D1F7
:10050200A889B98914965AD1EA87FB8700FD10C0E1
:10051200151770F407FF08C002FF04C00B7F242FD9
:10052200115001C020E301C020E2E5D05150F0CFCC
:10053200312F01FF16C0303099F003FF06C0EE8163
:10054200FF812591EE83FF8305C0AE81BF812D918E
:10055200AE83BF83D0D0503009F051503150EBCF31
:1005620048C020E3EE81FF812DD1E887F987EE8133
:10057200FF813296EE83FF83E885F985AA85BB85E4
:10058200AE17BF0750F02F5FA885B985EA85FB85B6
:10059200EA1BFB0BEA87FB87EFCF2A3328F003FF26
:1005A20002C0295F01C0295D04FD19C0213320F476
:1005B200A885B985119709F409C0531710F000FFF7
:1005C20001C011C020E207FF0AC020E3006102FF60
:1005D20006C00B7F4A939CD0503009F051508BD00B
:1005E200503009F051503150A885B985129708F062
:1005F200B8CF00FF07C0503029F05150E0E2EA9333
:1006020087D0F9CF10E0ECCEAC85BD85ED91FD91A0
:1006120096D064960895FF92F82E26971A930A931D
:10062200DE01149693D08D01E0E0EC83ED83EE833E
:10063200EF83DE0118968AD0ED91FD91FA93EA9349
:100642001A930A93E8EDF1E0FA93EA93DE01189621
:10065200BCDE198108812896FF900895BA93AA9367
:10066200A991B991EE27FF276D91662311F031967A
:10067200FBCF0895BA93AA93AA27BB27E991F991D0
:100682000590002011F01196FBCFFD0108950A920A
:100692001A92FA926A937A938A939A93AA93BA9342
:1006A200EA93FA93EFB7EA931A930895FA93EA93C7
:1006B20080E0B1DF2296A0EDB7E088C0FA93EA931A
:1006C20080E0A9DF2296A2E26BCEACE269DEA2E272
:1006D20067CEFA93EA9380E09EDF2296089551D086
:1006E200A1E0B0E053D00895EA93A0E081DDECE20E
:1006F200EA93A0E07DCD2A93AD85BE85EF85F8898A
:1007020009950895E889F9893497E88BF98B08955A
:10071200AD85BE85EF85F88909950895A889B989BF
:100722001496ED91FD91EE83FF83AE81BF81089512
:100732005A934A933A932A931A930A9308955D819E
:100742004C813B812A811981088108950024AF0DD3
:10075200B01D0895F195E195F0400895002411240B
:1007620090E1AA0FBB1F001C111C0E1A1F0A18F4DD
:100772000E0E1F1E01C0A1609A9599F7FD01D001CE
:1007820008950ED0EBDF0EF4E5DF0895E894F7FF4D
:1007920002C0E0DF6894EA23FB230EF4DBDF089556
:1007A200E894F7FF02C0D6DF6894B7FF06C0B195A0
:1007B200A195B04000F8039400FA0895ED91FC91E0
:1007C200119708950590F491E02D0895109639F04F
:1007D200A89580EA9FE00197F1F71197C9F708956C
:00000001FF
